{
  "contractName": "EuroBillions",
  "abi": [
    {
      "constant": true,
      "inputs": [
        {
          "name": "",
          "type": "address"
        }
      ],
      "name": "userBalances",
      "outputs": [
        {
          "name": "",
          "type": "uint256"
        }
      ],
      "payable": false,
      "stateMutability": "view",
      "type": "function"
    },
    {
      "constant": true,
      "inputs": [
        {
          "name": "",
          "type": "address"
        }
      ],
      "name": "userNames",
      "outputs": [
        {
          "name": "",
          "type": "string"
        }
      ],
      "payable": false,
      "stateMutability": "view",
      "type": "function"
    },
    {
      "constant": true,
      "inputs": [],
      "name": "_owner",
      "outputs": [
        {
          "name": "",
          "type": "address"
        }
      ],
      "payable": false,
      "stateMutability": "view",
      "type": "function"
    },
    {
      "inputs": [],
      "payable": false,
      "stateMutability": "nonpayable",
      "type": "constructor"
    },
    {
      "payable": true,
      "stateMutability": "payable",
      "type": "fallback"
    },
    {
      "anonymous": false,
      "inputs": [
        {
          "indexed": false,
          "name": "date",
          "type": "uint256"
        },
        {
          "indexed": false,
          "name": "player",
          "type": "address"
        },
        {
          "indexed": false,
          "name": "playerBet",
          "type": "uint256"
        },
        {
          "indexed": false,
          "name": "playerNumber",
          "type": "uint256"
        },
        {
          "indexed": false,
          "name": "winingNumber",
          "type": "uint256"
        }
      ],
      "name": "playEvent",
      "type": "event"
    },
    {
      "constant": false,
      "inputs": [
        {
          "name": "value",
          "type": "uint256"
        }
      ],
      "name": "ownerWithdraw",
      "outputs": [],
      "payable": false,
      "stateMutability": "nonpayable",
      "type": "function"
    },
    {
      "constant": false,
      "inputs": [
        {
          "name": "value",
          "type": "uint256"
        }
      ],
      "name": "userWithdraw",
      "outputs": [],
      "payable": false,
      "stateMutability": "nonpayable",
      "type": "function"
    },
    {
      "constant": true,
      "inputs": [],
      "name": "getBalance",
      "outputs": [
        {
          "name": "",
          "type": "uint256"
        }
      ],
      "payable": false,
      "stateMutability": "view",
      "type": "function"
    },
    {
      "constant": false,
      "inputs": [
        {
          "name": "pseudo",
          "type": "string"
        }
      ],
      "name": "register",
      "outputs": [],
      "payable": true,
      "stateMutability": "payable",
      "type": "function"
    },
    {
      "constant": false,
      "inputs": [
        {
          "name": "playerBet",
          "type": "uint256"
        },
        {
          "name": "playerNumber",
          "type": "uint256"
        }
      ],
      "name": "play",
      "outputs": [],
      "payable": false,
      "stateMutability": "nonpayable",
      "type": "function"
    }
  ],
  "bytecode": "0x608060405234801561001057600080fd5b50336000806101000a81548173ffffffffffffffffffffffffffffffffffffffff021916908373ffffffffffffffffffffffffffffffffffffffff160217905550610d35806100606000396000f30060806040526004361061008e576000357c0100000000000000000000000000000000000000000000000000000000900463ffffffff16806312065fe0146100dd57806326224c641461010857806333f707d11461015f5780633b9056bf1461018c5780637bc49a95146101b95780637f281635146101f0578063b2bdfa7b146102ac578063f2c298be14610303575b34600260003373ffffffffffffffffffffffffffffffffffffffff1673ffffffffffffffffffffffffffffffffffffffff16815260200190815260200160002060008282540192505081905550005b3480156100e957600080fd5b506100f261035f565b6040518082815260200191505060405180910390f35b34801561011457600080fd5b50610149600480360381019080803573ffffffffffffffffffffffffffffffffffffffff16906020019092919050505061037e565b6040518082815260200191505060405180910390f35b34801561016b57600080fd5b5061018a60048036038101908080359060200190929190505050610396565b005b34801561019857600080fd5b506101b7600480360381019080803590602001909291905050506104ca565b005b3480156101c557600080fd5b506101ee600480360381019080803590602001909291908035906020019092919050505061063e565b005b3480156101fc57600080fd5b50610231600480360381019080803573ffffffffffffffffffffffffffffffffffffffff16906020019092919050505061090b565b6040518080602001828103825283818151815260200191508051906020019080838360005b83811015610271578082015181840152602081019050610256565b50505050905090810190601f16801561029e5780820380516001836020036101000a031916815260200191505b509250505060405180910390f35b3480156102b857600080fd5b506102c16109bb565b604051808273ffffffffffffffffffffffffffffffffffffffff1673ffffffffffffffffffffffffffffffffffffffff16815260200191505060405180910390f35b61035d600480360381019080803590602001908201803590602001908080601f01602080910402602001604051908101604052809392919081815260200183838082843782019150505050505091929192905050506109e0565b005b60003073ffffffffffffffffffffffffffffffffffffffff1631905090565b60026020528060005260406000206000915090505481565b6000809054906101000a900473ffffffffffffffffffffffffffffffffffffffff1673ffffffffffffffffffffffffffffffffffffffff163373ffffffffffffffffffffffffffffffffffffffff16141515610480576040517f08c379a00000000000000000000000000000000000000000000000000000000081526004018080602001828103825260378152602001807f546869732066756e6374696f6e2063616e2062652063616c6c6564206f6e6c7981526020017f2062792074686520636f6e7472616374206f776e65722e00000000000000000081525060400191505060405180910390fd5b3373ffffffffffffffffffffffffffffffffffffffff166108fc829081150290604051600060405180830381858888f193505050501580156104c6573d6000803e3d6000fd5b5050565b80600260003373ffffffffffffffffffffffffffffffffffffffff1673ffffffffffffffffffffffffffffffffffffffff16815260200190815260200160002054101515156105a7576040517f08c379a00000000000000000000000000000000000000000000000000000000081526004018080602001828103825260218152602001807f4e6f7420656e6f756768206d6f6e6579206f6e2075736572206163636f756e7481526020017f2e0000000000000000000000000000000000000000000000000000000000000081525060400191505060405180910390fd5b80600260003373ffffffffffffffffffffffffffffffffffffffff1673ffffffffffffffffffffffffffffffffffffffff168152602001908152602001600020600082825403925050819055503373ffffffffffffffffffffffffffffffffffffffff166108fc829081150290604051600060405180830381858888f1935050505015801561063a573d6000803e3d6000fd5b5050565b60008083600260003373ffffffffffffffffffffffffffffffffffffffff1673ffffffffffffffffffffffffffffffffffffffff168152602001908152602001600020541015151561071e576040517f08c379a00000000000000000000000000000000000000000000000000000000081526004018080602001828103825260218152602001807f4e6f7420656e6f756768206d6f6e6579206f6e2075736572206163636f756e7481526020017f2e0000000000000000000000000000000000000000000000000000000000000081525060400191505060405180910390fd5b602483111515156107bd576040517f08c379a00000000000000000000000000000000000000000000000000000000081526004018080602001828103825260298152602001807f477565737365642076616c75652073686f756c64206265206265747765656e2081526020017f3020616e642033362e000000000000000000000000000000000000000000000081525060400191505060405180910390fd5b60014303406001900491506025828115156107d457fe5b069050828114156108345783602302600260003373ffffffffffffffffffffffffffffffffffffffff1673ffffffffffffffffffffffffffffffffffffffff16815260200190815260200160002060008282540192505081905550610882565b83600260003373ffffffffffffffffffffffffffffffffffffffff1673ffffffffffffffffffffffffffffffffffffffff168152602001908152602001600020600082825403925050819055505b7f5effac9f6a2ea57641c51b85a65fab9270556b922e3e4d90b5c5e2b49c4ba05b4233868685604051808681526020018573ffffffffffffffffffffffffffffffffffffffff1673ffffffffffffffffffffffffffffffffffffffff1681526020018481526020018381526020018281526020019550505050505060405180910390a150505050565b60016020528060005260406000206000915090508054600181600116156101000203166002900480601f0160208091040260200160405190810160405280929190818152602001828054600181600116156101000203166002900480156109b35780601f10610988576101008083540402835291602001916109b3565b820191906000526020600020905b81548152906001019060200180831161099657829003601f168201915b505050505081565b6000809054906101000a900473ffffffffffffffffffffffffffffffffffffffff1681565b60008151111515610a59576040517f08c379a00000000000000000000000000000000000000000000000000000000081526004018080602001828103825260178152602001807f50736575646f2063616e6e6f7420626520656d7074792e00000000000000000081525060200191505060405180910390fd5b6000600160003373ffffffffffffffffffffffffffffffffffffffff1673ffffffffffffffffffffffffffffffffffffffff168152602001908152602001600020805460018160011615610100020316600290049050141515610b24576040517f08c379a00000000000000000000000000000000000000000000000000000000081526004018080602001828103825260168152602001807f43616e6e6f742072656769737465722074776963652e0000000000000000000081525060200191505060405180910390fd5b67016345785d8a000034111515610bc9576040517f08c379a00000000000000000000000000000000000000000000000000000000081526004018080602001828103825260228152602001807f526567697374726174696f6e206465706f73697420697320746f6f20736d616c81526020017f6c2e00000000000000000000000000000000000000000000000000000000000081525060400191505060405180910390fd5b34600260003373ffffffffffffffffffffffffffffffffffffffff1673ffffffffffffffffffffffffffffffffffffffff1681526020019081526020016000208190555080600160003373ffffffffffffffffffffffffffffffffffffffff1673ffffffffffffffffffffffffffffffffffffffff1681526020019081526020016000209080519060200190610c60929190610c64565b5050565b828054600181600116156101000203166002900490600052602060002090601f016020900481019282601f10610ca557805160ff1916838001178555610cd3565b82800160010185558215610cd3579182015b82811115610cd2578251825591602001919060010190610cb7565b5b509050610ce09190610ce4565b5090565b610d0691905b80821115610d02576000816000905550600101610cea565b5090565b905600a165627a7a723058200ed1c0d2d54b9f737800ec466a3f763975d61c4524d2f6a5a61fc1337bd5b3ae0029",
  "source": "pragma solidity ^0.4.0;\r\n\r\ncontract EuroBillions {\r\n    // Contract members will be store in \"Storage\"\r\n    address public _owner;\r\n\r\n    // Store user names and user balances.\r\n    mapping(address => string) public userNames;\r\n    mapping(address => uint) public userBalances;\r\n\r\n    // Event raised when a player win or loose.\r\n    event playEvent(uint date, address player, uint playerBet, uint playerNumber, uint winingNumber);\r\n\r\n    // Constructor code is executed only once when the contract is deployed.\r\n    constructor () public {\r\n        _owner = msg.sender;\r\n    }\r\n\r\n    // Modifier are used to decorate a function with a pre/post processing code.\r\n    modifier ownerOnly {\r\n        require(msg.sender == _owner, \"This function can be called only by the contract owner.\");\r\n        _;  // flow of execution to the original function code\r\n    }\r\n\r\n    // Manage access to sensitive function with a modifier.\r\n    function ownerWithdraw(uint value) public ownerOnly {\r\n        msg.sender.transfer(value);\r\n    }\r\n\r\n    // Player can withdraw money.\r\n    function userWithdraw(uint value) public {\r\n        require(userBalances[msg.sender] >= value, \"Not enough money on user account.\");\r\n        userBalances[msg.sender] -= value;\r\n        msg.sender.transfer(value);\r\n    }\r\n\r\n    // Return all money send by all users.\r\n    function getBalance() public view returns (uint) {\r\n        return address(this).balance;\r\n    }\r\n\r\n    // This function is used to register new user, and deposit initial funds.\r\n    function register(string memory pseudo) public payable {\r\n        require(bytes(pseudo).length > 0, \"Pseudo cannot be empty.\");\r\n        require(bytes(userNames[msg.sender]).length == 0, \"Cannot register twice.\");\r\n        require(msg.value > 0.1 ether, \"Registration deposit is too small.\");\r\n        \r\n        userBalances[msg.sender] = msg.value;\r\n        userNames[msg.sender] = pseudo;\r\n    }\r\n\r\n    // Let's play!\r\n    function play(uint playerBet, uint playerNumber) public {\r\n        require(userBalances[msg.sender] >= playerBet, \"Not enough money on user account.\");\r\n        require(playerNumber <= 36, \"Guessed value should be between 0 and 36.\");\r\n\r\n        // Smart contract execution is deterministic (needed to validate blocks by peers). Random is \"simulated\" with previous block hash.\r\n        uint256 blockValue = uint256(blockhash(block.number-1));\r\n        uint winingNumber = (blockValue % 37);\r\n        \r\n        if (winingNumber == playerNumber) {\r\n            userBalances[msg.sender] += 35 * playerBet; // Player win, he won.\r\n        }\r\n        else {\r\n            userBalances[msg.sender] -= playerBet;      // Player loose! Too bad, the contract will keep the money.\r\n        }\r\n\r\n        // Raise an event with game result.\r\n        emit playEvent(now, msg.sender, playerBet, playerNumber, winingNumber);\r\n    }\r\n    \r\n    // Callback function receive the Ether send to a contract address.\r\n    function () public payable {\r\n        userBalances[msg.sender] += msg.value;\r\n    }\r\n}",
  "sourcePath": "C:\\Data\\Sources\\Ethereum\\open-rdays-4\\contracts\\EuroBillions.sol",
  "compiler": {
    "name": "solc",
    "version": "0.4.26+commit.4563c3fc.Emscripten.clang"
  },
  "schemaVersion": "3.0.9",
  "updatedAt": "2019-05-23T12:04:14.820Z",
  "devdoc": {
    "methods": {}
  },
  "userdoc": {
    "methods": {}
  }
}